:100000000C9435000C945D000C945D000C945D0024
:100010000C945D000C945D000C945D000C945D00EC
:100020000C945D000C945D000C945D000C945D00DC
:100030000C945D000C945D000C945D000C945D00CC
:100040000C9431030C945D000C94A1030C947B037D
:100050000C945D000C945D000C945D000C945D00AC
:100060000C945D000C945D00060611241FBECFEFBA
:10007000D8E0DEBFCDBF22E0A0EEB1E001C01D920E
:10008000A43DB207E1F711E0A0E0B1E0E2EEF1E15A
:1000900002C005900D92A03EB107D9F710E0C5E36C
:1000A000D0E004C02197FE010E94E406C433D107CA
:1000B000C9F70E94D3030C94EF080C9400003FB7DB
:1000C000F89480912B0290912C02A0912D02B09176
:1000D0002E0226B5A89B05C02F3F19F00196A11D41
:1000E000B11D3FBFBA2FA92F982F8827820F911DCE
:1000F000A11DB11DBC01CD0142E0660F771F881F15
:10010000991F4A95D1F708958F929F92AF92BF920F
:10011000CF92DF92EF92FF920E945F004B015C0151
:100120008AE0C82ED12CE12CF12C0E945F00DC016A
:10013000CB0188199909AA09BB09883E9340A105FA
:10014000B10598F321E0C21AD108E108F10888EE60
:10015000880E83E0981EA11CB11CC114D104E104D7
:10016000F10419F7FF90EF90DF90CF90BF90AF9020
:100170009F908F900895CF92DF92EF92FF920F930E
:100180001F93CF93DF936C017A018B01C0E0D0E025
:10019000CE15DF0581F0D8016D918D01D601ED916D
:1001A000FC910190F081E02DC6010995892B11F099
:1001B0002196EECF7E01C701DF91CF911F910F9164
:1001C000FF90EF90DF90CF900895089580E090E049
:1001D0000895FC01538D448D252F30E0842F90E04D
:1001E000821B930B541710F0CF9608950197089532
:1001F000FC01918D828D981761F0828DDF01A80F2F
:10020000B11D5D968C91928D9F5F9F73928F90E050
:1002100008958FEF9FEF0895FC01918D828D9817BF
:1002200031F0828DE80FF11D858D90E008958FEFFC
:100230009FEF08952FB7F89480912F02909130028C
:10024000A0913102B09132022FBF80933B02909374
:100250003C02A0933D02B0933E0283E392E00E94F1
:100260000C0197FF26C02FB7F89480912F02909130
:100270003002A0913102B09132022FBF40913B0277
:1002800050913C0260913D0270913E02841B950B9F
:10029000A60BB70B4091370250913802609139029A
:1002A00070913A0284179507A607B707B0F28FEF4F
:1002B0009FEF0895FC01918D228D892F90E0805C45
:1002C0009F4F821B91098F739927089583E392E0D2
:1002D0000E945A0121E0892B09F420E0822F089521
:1002E000FC01848DDF01A80FB11DA35ABF4F2C91D3
:1002F000848D90E001968F739927848FA689B789A2
:100300002C93A089B1898C91837080648C93938D98
:10031000848D981306C00288F389E02D80818F7D3B
:1003200080830895EF92FF920F931F93CF93DF93F3
:10033000EC0181E0888F9B8D8C8D981305C0E88936
:10034000F989808185FD26C0F62E0B8D10E00F5FA8
:100350001F4F0F731127E02E8C8DE8120CC00FB6C3
:1003600007FCFACFE889F989808185FFF5CFCE01B6
:100370000E947001F1CF8B8DFE01E80FF11DE35A51
:10038000FF4FF0829FB7F8940B8FEA89FB89808139
:1003900080620AC09FB7F894EE89FF896083E8897C
:1003A000F98980818370806480839FBF81E090E0C1
:1003B000DF91CF911F910F91FF90EF900895CF9310
:1003C000DF93EC01888D8823C9F0EA89FB8980815D
:1003D00085FD05C0A889B9898C9186FD0FC00FB62F
:1003E00007FCF5CF808185FFF2CFA889B9898C9170
:1003F00085FFEDCFCE010E947001E7CFDF91CF9155
:10040000089580E090E0892B29F00E946601811117
:100410000C940000089542E050E068E171E083E34D
:1004200092E00C94BB00CF93DF93009779F0FC012E
:1004300001900020E9F73197AF01481B590BBC012F
:1004400083E392E00E94BB00EC0102C0C0E0D0E078
:100450000E940B028C0F9D1FDF91CF910895FC012C
:10046000808191810C948207CF93DF93EC01888186
:100470009981009711F00E948207198218821D82CB
:100480001C821B821A82DF91CF9108950E94D108AD
:100490000F931F93CF93DF93EC018881998100978D
:1004A00029F02A813B812617370788F48B016F5F7B
:1004B0007F4F0E940B08009761F0998388831B830C
:1004C0000A832C813D81232B11F4FC01108281E0F1
:1004D00001C080E0DF91CF911F910F910895EF92BD
:1004E000FF920F931F93CF93DF93EC01FB010481E5
:1004F0001581E080F180E114F104C9F001151105C6
:10050000C9F08C819D81080F191FB801CE010E948E
:100510004802882361F0288139818C819D81B7014F
:10052000820F931F0E94E8081D830C8303C0CE0135
:100530000E943402CE01DF91CF911F910F91FF9065
:10054000EF900895EF92FF920F931F93CF93DF9355
:1005500000D0CDB7DEB78C0180E289831A82F80122
:10056000E480F580FFEFEF1AFF0AB701C8010E948F
:100570004802882381F0F8012081318184819581AE
:10058000BE016F5F7F4F820F931F0E94E808F80142
:10059000F582E48203C0C8010E943402C8010F90B2
:1005A0000F90DF91CF911F910F91FF90EF900895E1
:1005B000EF92FF920F931F93CF93DF93EC017B0198
:1005C0008A01BA010E944802811104C0CE010E9432
:1005D000340207C01D830C83B701888199810E9472
:1005E000E808CE01DF91CF911F910F91FF90EF901E
:1005F0000895EF92FF920F931F93CF93DF93CDB7A0
:10060000DEB762970FB6F894DEBF0FBECDBF8C0188
:10061000CB01F8011182108213821282158214829A
:100620004AE09E012F5F3F4F7901B9010E943306D6
:10063000F70101900020E9F73197AF014E195F09EA
:10064000B701C8010E94D80262960FB6F894DEBFC7
:100650000FBECDBFDF91CF911F910F91FF90EF9013
:1006600008951F920F920FB60F9211242F933F936C
:100670008F939F93AF93BF9380912F0290913002FD
:10068000A0913102B091320230912A0223E0230F6F
:100690002D3720F40196A11DB11D05C026E8230FBA
:1006A0000296A11DB11D20932A0280932F029093E0
:1006B0003002A0933102B093320280912B029091CC
:1006C0002C02A0912D02B0912E020196A11DB11D08
:1006D00080932B0290932C02A0932D02B0932E02B4
:1006E000BF91AF919F918F913F912F910F900FBE2E
:1006F0000F901F9018951F920F920FB60F92112412
:100700002F933F934F935F936F937F938F939F9319
:10071000AF93BF93EF93FF9383E392E00E94700146
:10072000FF91EF91BF91AF919F918F917F916F91C9
:100730005F914F913F912F910F900FBE0F901F909F
:1007400018951F920F920FB60F9211242F938F932B
:100750009F93EF93FF93E0914302F09144028081D5
:10076000E0914902F0914A0282FD12C0908180918D
:100770004C028F5F8F7320914D02821751F0E091F0
:100780004C02F0E0ED5CFD4F958F80934C0201C070
:100790008081FF91EF919F918F912F910F900FBECC
:1007A0000F901F901895CF93DF93CDB7DEB7AA9720
:1007B0000FB6F894DEBF0FBECDBF789484B58260CB
:1007C00084BD84B5816084BD85B5826085BD85B5F5
:1007D000816085BD80916E00816080936E00109273
:1007E00081008091810082608093810080918100EE
:1007F000816080938100809180008160809380007F
:100800008091B10084608093B1008091B0008160DC
:100810008093B00080917A00846080937A00809108
:100820007A00826080937A0080917A008160809360
:100830007A0080917A00806880937A001092C100DB
:10084000E0914302F091440282E08083E0913F0214
:10085000F09140021082E0914102F091420280E169
:10086000808310924B02E0914702F091480286E0AB
:100870008083E0914502F09146028081806180830F
:10088000E0914502F0914602808188608083E0918A
:100890004502F0914602808180688083E0914502A4
:1008A000F091460280818F7D80838BE191E00E94F0
:1008B000130280E891E00E941302772473948E0162
:1008C0000F5F1F4F5E0185E2A80EB11C812C912C99
:1008D00083E392E00E945A01181619060CF03FC0FB
:1008E0007092200283E392E00E940C01C0970A9765
:1008F00000F50E941A01FC0197FD0DC08D32910593
:1009000009F447C1C0970A9708F443C183E392E012
:100910000E94F800EECFC12CD12C7601F401EE0F2D
:10092000FF1FE052FE4FD182C082FFEF8F1A9F0A55
:100930000EC083E392E00E940C010E94D608892B2E
:1009400049F083E392E00E94F800809324020E9421
:100950008400BECF83E392E00E94F800B9CF80917B
:1009600020028823A1F08091E0019091E101909311
:100970002302809322028091E2019091E3019093FF
:10098000260280932502109220027092210280910B
:100990002102882309F450C08AE991E00E941302E1
:1009A000809124028B3231F194F48A32E9F540913E
:1009B0002202509123022091250230912602429F6B
:1009C000C001439F900D529F900D112428C08D327D
:1009D000E1F08F3249F580912202909123026091DB
:1009E0002502709126020E94BC0670932802609333
:1009F00027021EC0209122023091230280912502FD
:100A000090912602820F931F0AC08091220290913A
:100A100023022091250230912602821B930B909392
:100A200028028093270204C089EA91E00E94130201
:100A3000109221027092290280912902882309F4E0
:100A4000A5C06091270270912802CE014F960E94A6
:100A5000F9021A8E198E1C8E1B8E1E8E1D8E43E07F
:100A600050E06BEB71E0CE0149960E94D802609194
:100A7000250270912602CE0143960E94F9028091D0
:100A800024021E861D86188A1F861A8A198A89835F
:100A90001A82F80101900020E9F73197AF01401B5D
:100AA000510BB801CE010D960E94D802609122022E
:100AB00070912302C8010E94F90218861F821A86CB
:100AC00019861C861B8669817A816115710531F052
:100AD0004D815E81CE0107960E94D802CE01079615
:100AE0000E94A202BE01635F7F4F0E946F020E94BC
:100AF000A202BE016D5E7F4F0E946F02BE01675E63
:100B00007F4F0E946F02BE01615E7F4F0E946F02A5
:100B10001EA21DA218A61FA21AA619A68A159B0519
:100B200059F0FC01608171816115710529F04481E2
:100B30005581C5010E94D802CE0107960E942F025E
:100B4000C8010E942F02CE010D960E942F02CE01F5
:100B500043960E942F02CE0149960E942F02CE0199
:100B60004F960E942F0249A55AA56DA17EA183E34D
:100B700092E00E94BB000E940B028FEB91E00E946A
:100B8000130210922902C5010E942F020E94010245
:100B90009DCEC12CD12C7601612CE130F105E9F01C
:100BA000ED32F105C1F0CF01C0970A97B0F4AAE089
:100BB000B0E0A70196010E946B066F01FF0FEE08DF
:100BC000FF08C60ED71EE81EF91EE0E3CE1AD108B4
:100BD000E108F10802C06624639483E392E00E9476
:100BE000F8000E941A01FC01C0970A97B0F2E130A8
:100BF000F10599F2662009F491CEF094E094D09436
:100C0000C094C11CD11CE11CF11C88CEE3E3F2E0CE
:100C10001382128288EE93E0A0E0B0E08483958393
:100C2000A683B7838AE091E09183808385EC90E08E
:100C30009587848784EC90E09787868780EC90E0A6
:100C4000918B808B81EC90E0938B828B82EC90E097
:100C5000958B848B86EC90E0978B868B118E128E11
:100C6000138E148E0895BB274A3031F4992322F451
:100C7000BDE2909581959F4F0C943F06BB27FB01E9
:100C80005527AA27880F991FAA1FA41710F0A41B85
:100C900083955051B9F7A05DAA3308F0A95DA193DF
:100CA000009779F7B111B1931192CB010C945806CA
:100CB000DC01FC01672F71917723E1F7329704C0C3
:100CC0007C916D9370836291AE17BF07C8F308954E
:100CD0009927882708950E94AD06A59F900DB49F7F
:100CE000900DA49F800D911D112408952F923F9285
:100CF0004F925F926F927F928F929F92AF92BF922C
:100D0000CF92DF92EF92FF920F931F93CF93DF93D7
:100D1000CDB7DEB7CA1BDB0B0FB6F894DEBF0FBE34
:100D2000CDBF09942A88398848885F846E847D8481
:100D30008C849B84AA84B984C884DF80EE80FD8083
:100D40000C811B81AA81B981CE0FD11D0FB6F894F9
:100D5000DEBF0FBECDBFED010895A29FB001B39FCE
:100D6000C001A39F700D811D1124911DB29F700DB4
:100D7000811D1124911D089597FB072E16F40094F0
:100D800007D077FD09D00E94D00607FC05D03EF4BD
:100D9000909581959F4F0895709561957F4F089527
:100DA000AA1BBB1B51E107C0AA1FBB1FA617B70791
:100DB00010F0A61BB70B881F991F5A95A9F78095AD
:100DC0009095BC01CD010895EE0FFF1F0590F491A1
:100DD000E02D09940F931F93CF93DF9382309105F9
:100DE00010F482E090E0E091D202F091D30220E092
:100DF00030E0A0E0B0E0309719F1408151810281EC
:100E0000138148175907C8F08417950769F410979C
:100E100031F012960C93129713961C9327C00093EF
:100E2000D2021093D30222C02115310519F04217C6
:100E3000530718F49A01BD01EF01DF01F801DBCF80
:100E400021153105F9F0281B390B2430310580F4C8
:100E50008A819B816115710521F0FB019383828357
:100E600004C09093D3028093D202FE01329644C014
:100E7000FE01E20FF31F81939193225031093983D0
:100E800028833AC02091D0023091D102232B41F423
:100E900020910201309103013093D1022093D002BE
:100EA00020910001309101012115310541F42DB748
:100EB0003EB74091040150910501241B350BE09190
:100EC000D002F091D102E217F307A0F42E1B3F0BE2
:100ED0002817390778F0AC014E5F5F4F24173507AC
:100EE00048F04E0F5F1F5093D1024093D002819380
:100EF000919302C0E0E0F0E0CF01DF91CF911F912C
:100F00000F910895CF93DF93009709F481C0FC01FE
:100F1000329713821282A091D202B091D30210971D
:100F200081F420813181820F931F2091D002309172
:100F3000D1022817390751F5F093D102E093D0027E
:100F400067C0ED0120E030E0CE17DF0740F44A81B2
:100F50005B819E0141155105F1F0EA01F5CFD38384
:100F6000C28340815181840F951FC817D90759F456
:100F700088819981840F951F0296918380838A814D
:100F80009B81938382832115310529F4F093D30249
:100F9000E093D2023DC0E901FB83EA834991599174
:100FA000C40FD51FEC17FD0761F480819181840F78
:100FB000951F0296E90199838883828193819B839F
:100FC0008A83E0E0F0E012968D919C911397009750
:100FD00019F0FD01DC01F7CF8D919C9111979D01D6
:100FE0002E5F3F4F820F931F2091D0023091D1028C
:100FF0002817390769F4309729F41092D302109218
:10100000D20202C013821282B093D102A093D00206
:10101000DF91CF910895A0E0B0E0E1E1F8E00C9419
:101020007A06EC01009721F4CB010E94EA06B4C0D5
:10103000FC01E60FF71F9C0122503109E217F3076C
:1010400008F4A8C0D9010D911C9111970617170734
:10105000B0F00530110508F49BC0C801049786174D
:10106000970708F495C002501109061B170B01934E
:1010700011936D937C93CF010E94820789C05B011D
:10108000A01AB10A4C01800E911EA091D202B0911B
:10109000D302612C712CE12CF12C109709F446C07D
:1010A0008D919C911197A815B905B1F56C0142E09D
:1010B000C40ED11CCA14DB0478F14C018A189B08B9
:1010C000640142E0C40ED11C1296BC901297139694
:1010D000AC91B5E0CB16D10440F0B282A3839182EB
:1010E0008082D9016D937C9309C00E5F1F4F800FE2
:1010F000911FF90191838083EB2DFA2FE114F10404
:1011000031F0D7011396FC93EE93129741C0F09300
:10111000D302E093D2023CC06816790608F43C0181
:101120007D0112960D90BC91A02DB7CF8091D00279
:101130009091D10288169906E1F466167706C8F4F4
:101140008091000190910101009741F48DB79EB705
:101150004091040150910501841B950BE817F90794
:10116000C8F4F093D102E093D002F9017183608357
:101170000FC0CB010E94EA067C01009759F0A8013C
:10118000BE010E94DF08CE010E948207C70104C091
:10119000CE0102C080E090E0CDB7DEB7EEE00C9467
:1011A000960681E090E0F8940C94EF08803209F004
:1011B00091110C94680680528F55D8F70895FB0161
:1011C000DC0102C001900D9241505040D8F70895C3
:1011D000FB01DC0101900D920020E1F70895F894E5
:0211E000FFCF3F
:1011E2000000D4028000000000009201BB00E90070
:1011F200DF015A01F8000C010D0A005468697320DE
:1012020070726F6772616D2069732061626C652014
:10121200746F20706572666F726D206164646974A8
:10122200696F6E2C207375627472616374696F6E7C
:101232002C206D756C7469706C69636174696F6E72
:101242002C20616E64206469766973696F6E206F09
:10125200662074776F20696E7465676572732E00FD
:10126200506C6561736520656E74657220616E20D5
:101272006F7065726174696F6E0043616C63756C47
:101282006174696E672E2E2E00506C656173652045
:1012920074727920616761696E2E00203D200050D2
:1012A2006C6561736520656E74657220616E6F7422
:1012B200686572206F7065726174696F6E2E0000CE
:107E0000112484B714BE81FFF0D085E080938100F7
:107E100082E08093C00088E18093C10086E0809377
:107E2000C20080E18093C4008EE0C9D0259A86E02C
:107E300020E33CEF91E0309385002093840096BBD3
:107E4000B09BFECF1D9AA8958150A9F7CC24DD24C4
:107E500088248394B5E0AB2EA1E19A2EF3E0BF2EE7
:107E6000A2D0813461F49FD0082FAFD0023811F036
:107E7000013811F484E001C083E08DD089C08234E0
:107E800011F484E103C0853419F485E0A6D080C0E4
:107E9000853579F488D0E82EFF2485D0082F10E0AE
:107EA000102F00270E291F29000F111F8ED06801E7
:107EB0006FC0863521F484E090D080E0DECF843638
:107EC00009F040C070D06FD0082F6DD080E0C81688
:107ED00080E7D80618F4F601B7BEE895C0E0D1E017
:107EE00062D089930C17E1F7F0E0CF16F0E7DF06D8
:107EF00018F0F601B7BEE89568D007B600FCFDCFD4
:107F0000A601A0E0B1E02C9130E011968C91119780
:107F100090E0982F8827822B932B1296FA010C0160
:107F200087BEE89511244E5F5F4FF1E0A038BF0790
:107F300051F7F601A7BEE89507B600FCFDCF97BE46
:107F4000E89526C08437B1F42ED02DD0F82E2BD052
:107F50003CD0F601EF2C8F010F5F1F4F84911BD097
:107F6000EA94F801C1F70894C11CD11CFA94CF0C13
:107F7000D11C0EC0853739F428D08EE10CD085E9AC
:107F80000AD08FE07ACF813511F488E018D01DD067
:107F900080E101D065CF982F8091C00085FFFCCF94
:107FA0009093C60008958091C00087FFFCCF809118
:107FB000C00084FD01C0A8958091C6000895E0E648
:107FC000F0E098E1908380830895EDDF803219F02E
:107FD00088E0F5DFFFCF84E1DECF1F93182FE3DFCA
:107FE0001150E9F7F2DF1F91089580E0E8DFEE27F6
:047FF000FF270994CA
:027FFE00040479
:0400000300007E007B
:00000001FF
